:1000000000800020BD010000F94D0000B14D00004E
:10001000B14D0000B14D0000B14D0000B14D0000E8
:10002000B14D0000B14D0000B14D0000F94D000090
:10003000F94D0000B14D0000956400009964000086
:10004000F94D0000F94D0000F94D0000F94D000098
:10005000F94D0000F94D0000F94D0000F94D000088
:10006000F94D0000F94D0000F94D0000F94D000078
:10007000F94D0000F94D0000F94D0000F94D000068
:10008000F94D0000F94D0000F94D0000F94D000058
:10009000F94D0000F94D0000F94D0000F94D000048
:1000A000F94D0000F94D0000F94D0000F94D000038
:1000B000F94D0000F94D0000F94D0000F94D000028
:1000C000F94D0000F94D0000F94D0000F94D000018
:1000D000F94D0000F94D0000F94D0000F94D000008
:1000E000F94D0000F94D0000F94D0000F94D0000F8
:1000F000F94D0000F94D0000F94D0000F94D0000E8
:10010000F94D0000F94D0000F94D0000F94D0000D7
:10011000F94D0000F94D0000F94D0000F94D0000C7
:10012000F94D0000F94D0000F94D0000F94D0000B7
:10013000F94D0000F94D000015490000F94D00008F
:10014000F94D0000F94D0000F94D0000F94D000097
:10015000F94D0000F94D0000F94D0000F94D000087
:10016000E166000065540000F94D0000F94D000003
:10017000F94D0000F94D0000F94D0000F94D000067
:10018000F94D0000F94D0000F94D0000F94D000057
:10019000F94D0000F94D0000F94D0000F94D000047
:1001A000F94D0000F94D0000F94D0000F94D000037
:1001B000F94D0000F94D0000F94D0000564B4CF28E
:1001C000205210B51A804DF628121A8000BF00BFC9
:1001D00004F016FE514B4FF010621A60504A9A60BC
:1001E000504ADA60504A136813F4807304D14F49BF
:1001F0000B604FF4A85313604D4B1A78110703D5C9
:100200001A7842F008021A704A4B4B492A221A7097
:100210004A4A4B4B8B4204D252F8040F43F8040B6A
:10022000F8E7484B484900228B4202D243F8042B9E
:10023000FAE74649464A002352F8230041F82300D2
:1002400001336F2BF8D1434B434A802103F8011B44
:100250009342FBD1414B3D4A1A60414B8A221A70AE
:10026000A3F5805324225A70A0221A709A7992071B
:10027000FCD59A79D406FCD43A4A937903F00C035E
:10028000082B384BF9D105221A7143225A719A79F9
:100290009006FCD5334A9179324B4906FBD5324A58
:1002A0004FF0817111600521516020221A709A79F6
:1002B00002F00C020C2AFAD12C4B2D4A1A602D4B5D
:1002C0002D4A1A6000225A60072243F8042C2B4A58
:1002D000C3F80C2D62B604F07BFF144B1B68DA07E1
:1002E00005D5274804F008FE264B274A1A60274BFD
:1002F0001B785B0609D5234C234B22689A4204D114
:100300001F4804F0F9FD0023236006F07FFD04F090
:100310007DFD04F0ABFCFEE70E200540308004407C
:10032000823F04000100002B10D0034014D0034092
:1003300002D0074000E007402490FF1FCC8100005E
:100340002087FF1F2490FF1FB499FF1F0082FF1F0B
:100350000000000000E400E05FE400E008ED00E0E1
:1003600000500640004006404480044004800440A1
:10037000C010050014E000E03F190100000020203B
:100380007E98485F1CE00340A5C3945A00F00740E4
:10039000FFFFFFFFFFFFFFFFFFFFFFFFFFFFFFFF6D
:1003A000FFFFFFFFFFFFFFFFFFFFFFFFFFFFFFFF5D
:1003B000FFFFFFFFFFFFFFFFFFFFFFFFFFFFFFFF4D
:1003C000FFFFFFFFFFFFFFFFFFFFFFFFFFFFFFFF3D
:1003D000FFFFFFFFFFFFFFFFFFFFFFFFFFFFFFFF2D
:1003E000FFFFFFFFFFFFFFFFFFFFFFFFFFFFFFFF1D
:1003F000FFFFFFFFFFFFFFFFFFFFFFFFFFFFFFFF0D
:10040000FFFFFFFFFFFFFFFFFFFFFFFFDEF9FFFF23
:1004100010B5054C237833B9044B13B10448AFF33E
:1004200000800123237010BD2490FF1F00000000F6
:10043000D0810000084B10B51BB108490848AFF344
:1004400000800848036803B910BD074B002BFBD0A0
:10045000BDE81040184700BF000000002890FF1FB3
:10046000D08100002490FF1F0000000043680B7043
:1004700043681B0A4B70C3888B70C379CB70836849
:100480000B7183681B0A4B7143898B71C37ACB71E3
:10049000082070470B7843604A7843EA02234360A0
:1004A0008A7843EA02434360CA7843EA02634360BE
:1004B0000B7983604A7943EA022383608A7943EAAD
:1004C00002438360CA7943EA02638360082070476D
:1004D00000487047EC7D000000487047FC7D00003C
:1004E000F0B50C460A788280064614F8010F002306
:1004F00042EA0022B2801A4614F8010F98400833ED
:10050000202B42EA0002F7D1971D062F58D901F19E
:10051000050E551D73464C1913F8010F03F8010C15
:10052000A342F9D100234B5518460D44C6F808E004
:1005300015F8014F84400830202843EA0403F7D11E
:10054000381D0344834209D909320A440446013460
:1005500012F8015F02F8015CA342F8D80138CF1805
:100560000024084407F8014C2246F06017F8015BAC
:1005700095400832202A44EA0504F7D1181D0444A6
:10058000A04209D203330B440246013213F8015F43
:1005900003F8015CA242F8D30D1901380844002386
:1005A00005F8013C3061A8786B780A5DED780104AC
:1005B00041EA0323134343EA0563201D7361F0BD41
:1005C000551D01F1050EADE700487047207E000083
:1005D000004870473C7E00000B78F0B403710023A4
:1005E00006460C461D4614F8012F9A400833202B6E
:1005F00045EA0205F7D1681D052801F1040708D96D
:100600002C1D3B460C4413F8012F03F8012C9C428F
:10061000F9D10D4400232B71B760F0BC704700BFC7
:1006200000487047607E000000487047747E0000FC
:1006300000487047F47F000000487047987E000033
:1006400043680B701A0C10B41C0A1B0E4C708A7095
:10065000CB7083680B711C0A1A0C1B0E4C718A71CB
:10066000CB71C3680B72180A1A0C1B0E48728A727F
:100670000C20CB7210BC70470B6843604B688360E2
:100680008B68C3600C20704700487047BC7E000038
:1006900000487047D47E000000487047F87E000094
:1006A00000487047107F000000487047347F00000A
:1006B00000487047487F0000F0B50A4B0A4F1B689E
:1006C0000A4D0B498668C468026A2E6083B00C60CC
:1006D0000193DDF804E0074BC7F800E01A6003B0AF
:1006E000F0BD00BF1498FF1F9090FF1FD897FF1F09
:1006F000DC97FF1F1496FF1F90F8F804704700BFA7
:10070000406B704700487047347F000000487047D6
:10071000487F000005F0BCBC43682DE9F0470B7032
:1007200043681B0A4B70C3888B70C379CB704368D6
:10073000002B00F085800A4600250426C36853F884
:10074000253013711C0C1F0A1B0E94715771D37145
:1007500043680135AB42344602F1040206F1040657
:10076000ECD804F1080204F1050A04F1060904F1C9
:10077000070804F1090C04F10A0E04F10B051746F1
:100780000C3403698B5503691B0A01F80A30438A4C
:1007900001F80930C37C01F808300369F3B101EBBB
:1007A000070E75460022836953F822300EF8223076
:1007B0001C0C1E0A1B0EAC706E70EB7003690132CC
:1007C00093423C4605F1040507F10407EBD804F118
:1007D000050C04F1060EE51D3A460834C3698B5436
:1007E000C3691B0A01F80C30C38B01F80E30C37FBC
:1007F0004B55C3690BB30F4680460026D8F824300A
:1008000053F8260006F03CFDB10005463A190023D6
:1008100025FA03F00833202B02F8010BF8D1D8F8A1
:1008200024300434381959582A4604F027FAD8F8E5
:100830001C300136B3422C44E0D82046BDE8F08796
:10084000082217460C240B254FF00A0E4FF0090C16
:100850004FF007084FF006094FF0050A042690E70D
:1008600070B503790B70064680680D4606F008FDEA
:100870002A460446002324FA03F10833202B02F809
:10088000011FF8D1B168681D224604F0F7F9601D18
:1008900070BD00BFF8B583880B7083881B0A4B704E
:1008A000064680680D4606F0EBFC030E010A020CBA
:1008B0006B71A8702A71E97002460446B168A81DE0
:1008C00004F0DCF9F06806F0DBFC611D0246294407
:1008D0000634002322FA03F00833202B01F8010F1D
:1008E000F8D104342819F168144404F0C7F93069C8
:1008F00006F0C6FC2A190746002327FA03F108333D
:10090000202B02F8011BF8D1043428193A4631692A
:1009100004F0B4F9381973692B540544190A1A0CF8
:100920001B0E6970AA70EB700430F8BD084605F024
:1009300099BC00BF2DE9F04F43680C689C4283B01E
:1009400005460E4600F2B3806C60002C00F0B880C3
:1009500005F1080C334600274FF0040E9C795A79B4
:10096000197993F80780E868240444EA02220A43CC
:1009700042EA0862AA60DCF8002040F827206A6892
:100980000137BA42714603F104030EF1040EE5D8B3
:1009900001F1080847464B1D881DCA1D01F1090ACF
:1009A00001F10A0B01F10B0901F10C04305CF35C5D
:1009B00016F80E1016F802E02A69000440EA032334
:1009C0000B4343EA0E63934200F290802B613BB3EA
:1009D00005F1140CF3194FF0000E9C785A78197831
:1009E00093F80380A869240444EA02220A4342EAF5
:1009F00008626A61DCF8002040F82E202A690EF1B6
:100A0000010E72453C4603F1040307F10407E4D8E4
:100A100004F1050A04F1060B04F10709B84608348D
:100A200016F80B2016F80A0016F8083016F80970A8
:100A3000E969120442EA0022134343EA07678F423E
:100A40004ED8EF617FB30027BC4605F1200E00238E
:100A50001946301910F8012B9A400833202B41EA2F
:100A60000201F7D104F104084144884509D2E31C8E
:100A700033444246013213F8010F03F8010C8A4255
:100A8000F8D3721808F1FF3802F801CC06EB08031E
:100A90002B626A6ADEF8003042F82730EB690137D2
:100AA000BB420C46D3D8204603B0BDE8F08FA1006E
:100AB000C06806F0D3F96C60E860002C7FF448AFA2
:100AC0004FF0080847460C244FF00B094FF00A0B73
:100AD0004FF0090A0722062005234FF0040E65E7B0
:100AE000B900686A06F0BAF96862AAE79900A869CD
:100AF000019306F0B3F9019BA86167E7F8B50546D5
:100B00008068C0F3C7520C460346002A00F0CF802D
:100B100002F56072110149B2C2F30716C3F3C34272
:100B200011435F010022A171D910DB1221712270E3
:100B30006270A270E7706371002106F0F3F800287C
:100B400040F0C780E671E868C0F3C7520346002A48
:100B500000F0BC8002F56072110149B2C2F30716C1
:100B6000C3F3C34211435F010022A173D910DB120A
:100B7000217322726272A272E7726373002106F01F
:100B8000D1F8002840F0BC80E6732869C0F3C75252
:100B90000346002A00F0978002F56072110149B205
:100BA000C2F30716C3F3C34211435F010022A175CC
:100BB000D910DB12217522746274A274E774637514
:100BC000002106F0AFF8002840F09680E675A8698D
:100BD000C0F3C7520346002A72D002F560721101B9
:100BE00049B2C2F30716C3F3C34211435F010022A7
:100BF000A177D910DB12217722766276A276E7768A
:100C00006377002106F08EF8002871D1E677E86955
:100C1000C0F3C7520346002A4FD002F5607211019B
:100C200049B2C2F30716C3F3C34211435F01002266
:100C300084F82610D910DB1284F8241084F82020C0
:100C400084F8212084F8222084F8237084F8253049
:100C5000002106F067F8002845D184F82760286A4B
:100C6000C0F3C75203462AB302F56072110149B2BC
:100C7000C2F30715C3F3C34211435F010022DE1024
:100C8000DB1284F82E1084F8282084F8292084F8B8
:100C90002A2084F82B7084F82C6084F82D300021F1
:100CA00006F040F8C8B984F82F503020F8BD164639
:100CB000114633E715461146DCE716461146B2E702
:100CC000164611468FE7164611466BE71646114643
:100CD00046E766F07F02E27135E765F07F0284F84F
:100CE0002F203020F8BD66F07F0284F82720B6E779
:100CF00066F07F02E2778AE766F07F02E27566E7D8
:100D000066F07F02E27340E7F8B506464068C0F33C
:100D1000C7520C460346002A58D002F560721101F2
:100D200049B2C2F30715C3F3C34211435F01002266
:100D3000A171D910DB12217122706270A270E7706C
:100D40006371002105F0EEFF002848D1E571B0681D
:100D5000C0F3C7520346002A3ED002F5607211016B
:100D600049B2C2F30715C3F3C34211435F01002226
:100D7000A173D910DB12217322726272A272E77220
:100D80006373002105F0CEFF90BBE573F068C0F3FC
:100D9000C7520346EAB102F56072110149B2C2F3CB
:100DA0000715C3F3C34211435F010022DE10DB12BB
:100DB000A17522746274A274E774267563750021AC
:100DC00005F0B0FF78B9E5751820F8BD1546114655
:100DD000A9E715461146E4E715461146C3E765F055
:100DE0007F02E271B3E765F07F02E2751820F8BD7B
:100DF00065F07F02E273C9E7CA78520970B44261B4
:100E00000346087942EAC0025A61487942EAC020A2
:100E100058618A79D20402F4F00202435A61CD7912
:100E20008E792C0104F4FE6454EA161403F10C00CC
:100E300005D0A4F5607442EAC4525A61CD7925F018
:100E40007F0542EA05625A61CA7A52099A610C7BAF
:100E500042EAC4029A614C7B42EAC4249C618A7BC8
:100E6000D20402F4F00222439A61CD7B8E7B2C01E6
:100E700004F4FE6454EA161405D0A4F5607442EA42
:100E8000C4529A61CD7B25F07F0542EA05629A61E2
:100E9000CA7C5209DA610C7D42EAC402DA614C7DF7
:100EA00042EAC424DC618A7DD20402F4F0022243C7
:100EB000DA61CD7D8E7D2C0104F4FE6454EA1614B3
:100EC00005D0A4F5607442EAC452DA61CD7D25F004
:100ED0007F0542EA0562DA61CA7E52095A620C7FD6
:100EE00042EAC4025A624C7F42EAC4245C628A7FAE
:100EF000D20402F4F00222435A62CD7F8E7F2C018D
:100F000004F4FE6454EA161405D0A4F5607442EAB1
:100F1000C4525A62CD7F25F07F0542EA05625A62CB
:100F200091F8232052099A6291F8244042EAC402BF
:100F30009A6291F8254042EAC4249C6291F82620E6
:100F4000D20402F4F00222439A6291F8275091F8F9
:100F500026602C0104F4FE6454EA161406D0A4F5AD
:100F6000607442EAC4529A6291F8275025F07F05D6
:100F700042EA05629A6291F82B205209DA6291F8EE
:100F80002C4042EAC402DA6291F82D4042EAC424BD
:100F9000DC6291F82E20D20402F4F0022243DA62DD
:100FA00091F82F5091F82E602C0104F4FE6454EA5D
:100FB000161406D0A4F5607442EAC452DA6291F8BD
:100FC0002F5025F07F0542EA0562DA6270BC1B6B88
:100FD000184700BFCB785B0930B483600A7943EAD5
:100FE000C20383604A7943EAC22282608B79DB04C0
:100FF00003F4F00313438360CC798D79220102F46A
:10100000FE6252EA151205D0A2F5607243EAC2539D
:101010008360CC7924F07F0443EA04638360CB7A55
:101020005B09C3600A7B43EAC203C3604A7B43EAAD
:10103000C222C2608B7BDB0403F4F0031343C36062
:10104000CC7B8D7B220102F4FE6252EA151205D0A0
:10105000A2F5607243EAC253C360CC7B24F07F04E4
:1010600043EA0463C360CB7C5B0903610A7D43EA06
:10107000C20303614A7D43EAC22202618B7DDB0425
:1010800003F4F00313430361CC7D8D7D220102F450
:10109000FE6252EA151205D0A2F5607243EAC2530D
:1010A0000361CC7D24F07F0443EA04630361CB7EBB
:1010B0005B0983610A7F43EAC20383614A7F43EA93
:1010C000C22282618B7FDB0403F4F003134383614C
:1010D000CC7F8D7F220102F4FE6252EA151205D008
:1010E000A2F5607243EAC2538361CC7F24F07F048F
:1010F00043EA0463836191F823305B09C36191F88B
:10110000242043EAC203C36191F8252043EAC222A6
:10111000C26191F82630DB0403F4F0031343C3618A
:1011200091F8274091F82650220102F4FE6252EA1B
:10113000151206D0A2F5607243EAC253C36191F85A
:10114000274024F07F0443EA0463C36191F82B3005
:101150005B09036291F82C2043EAC203036291F811
:101160002D2043EAC222026291F82E30DB0403F400
:10117000F0031343036291F82F4091F82E5022019F
:1011800002F4FE6252EA151206D0A2F5607243EA3A
:10119000C253036291F82F4024F07F0443EA0463B2
:1011A000036230BC30207047CB785B0930B44360B9
:1011B0000A7943EAC20343604A7943EAC2224260A1
:1011C0008B79DB0403F4F00313434360CC798D790E
:1011D000220102F4FE6252EA151205D0A2F56072F5
:1011E00043EAC2534360CC7924F07F0443EA0463AA
:1011F0004360CB7A5B0983600A7B43EAC203836066
:101200004A7B43EAC22282608B7BDB0403F4F00357
:1012100013438360CC7B8D7B220102F4FE6252EA91
:10122000151205D0A2F5607243EAC2538360CC7BED
:1012300024F07F0443EA04638360CB7C5B09C360D2
:101240000A7D43EAC203C3604A7D43EAC222C26008
:101250008B7DDB0403F4F0031343C360CC7D8D7DF1
:10126000220102F4FE6252EA151205D0A2F5607264
:1012700043EAC253C360CC7D24F07F0443EA046395
:10128000C36030BC18207047F0B585B0364A019273
:101290000368364D039503228DF808201B683449F6
:1012A0008B425AD100233821044680F8232205F1CD
:1012B000300E80F8241280F8253280F8263280F82B
:1012C000273200F50A772E460FCE764538607960D2
:1012D000BA60FB60354607F11007F4D103CD002258
:1012E0007960C2234FF0FF0EFE263D2507213860AE
:1012F00084F8203284F81CE284F81D6284F81E52BF
:1013000084F81F2284F8222284F8211204F2212377
:1013100004F25F2001E013F8011F83420A44FAD16E
:10132000D243144E84F8602204F21B2504F518778A
:1013300003E004F097FFBD420BD0626815F8011F6F
:1013400013681B68B3420846F3D010469847BD4265
:10135000F3D14FF0FF3005B0F0BD01AA0721984747
:101360004FF0FF3005B0F0BD507D00006C7F0000F5
:10137000791300002D0900002DE9F041632984B0A4
:1013800003DD90F8F874002F53D0136805460F461C
:1013900010461B6805F223219847C2B2C0F307210B
:1013A000561885F81E2247F30722F643FF234FF015
:1013B000FE0EFCB285F82222421C85F8206285F8D8
:1013C0001F1285F81C3285F81DE285F821420DDBDD
:1013D00000F22221294405F22123002201E013F822
:1013E000014F99422244FAD1D343DBB22A1800F1CB
:1013F0000807B7F5007F82F823321EDC002F05F5C1
:10140000077616DD0730DFF81081064405F21B244D
:1014100003E004F027FFB4420BD06A6814F8011F00
:1014200013681B6843450846F3D010469847B442FA
:10143000F3D1384604B0BDE8F081344A0192344C0F
:101440002B68039403228DF808201B6831498B42D6
:1014500055D10023382185F8232204F1300E85F878
:10146000241285F8253285F8263285F8273205F5CD
:101470000A7627460FCF774530607160B260F3601F
:101480003C4606F11006F4D103CC00227160C22361
:101490004FF0FF0EFE273D240721306085F82032F3
:1014A00085F81CE285F81D7285F81E4285F81F221A
:1014B00085F8222285F8211205F2212305F25F200A
:1014C00001E013F8011F98420A44FAD1D243DFF831
:1014D000488085F8602205F21B2405F5187603E0A4
:1014E00004F0C0FEB4420ED06A6814F8011F1368FD
:1014F0001B6843450846F3D010469847F2E7284654
:1015000001AA072198474FF0FF3093E7507D000074
:101510006C7F0000791300002D0900002DE9F04FC9
:101520004B4C00234FF46142A26093B004F27C4222
:10153000C4F8E434C4F8E834C4F8F034C4F8EC3443
:1015400002E00133192B0AD052F8041F0029F8D108
:1015500003F590713F4A44F82120643353603E4ABA
:10156000002302E00133192B0BD052F8041F00298D
:10157000F8D13A4A04EB83017D33C1F81C2493600F
:10158000D460374B02930A201D4603F0D1FD06219B
:101590003448DFF8DCB0344EDFF8D89003F018F9A7
:1015A0001421324803F014F994F8F8340193A5F5A6
:1015B0000775019B002B40F0148233680A93DDF815
:1015C00028A0D4F8003542F6F822C3EB0A03934270
:1015D00084BF9DF8043085F8F834D4F8E43433B18E
:1015E000D5F804359A4584BF0023C5F8E434A269D0
:1015F0003AB133680E930E9BCAEB03039A42C0F0D4
:10160000E882606803685B694B4540F07D8104F0C7
:101610003FFD0028C0F27C81D4F8F434D4F8E424EF
:101620000344072AC4F8F43400F0298222BBFF28BF
:1016300000F0388233680D930D9B41F28831CAEB7C
:1016400003038B42D3D9024B83F8F824B5E700BFDC
:10165000E090FF1F4090FF1FF894FF1FC497FF1FEB
:10166000FC92FF1F1896FF1F1498FF1FE896FF1F9C
:101670002D09000015070000012A00F01B82022A34
:1016800000F06C82032A00F07482042A00F07B824E
:10169000052A00F08782062A00F08C82082AA6D14B
:1016A000BE4A1A4000239A42C4F8E434C0F29B8236
:1016B000FF2A9CD1D4F8EC34002B00F001840A2BD3
:1016C00000F09C82062B00F0E9820B2B00F0908248
:1016D000BC3355F82330002B89D01A68B049126802
:1016E0008A4240F0C082EA7F52095A6195F8201080
:1016F00042EAC1025A6195F8211042EAC1225A61B8
:1017000095F82210C90401F4F0010A435A6195F8D2
:10171000237095F822E0380100F4FE6151EA1E11B1
:1017200003F10C0000F06882A1F5607142EAC15239
:101730005A6195F8231021F07F0142EA01625A6153
:1017400094F8272052099A6194F8281042EAC102BD
:101750009A6194F8291042EAC1229A6194F82A10F9
:10176000C90401F4F0010A439A6194F82BE094F85B
:101770002AC04FEA0E1707F4FE6151EA1C1100F06F
:101780008B83A1F5607142EAC1529A6195F82B10E2
:1017900021F07F0142EA01629A6194F82F205209F8
:1017A000DA6194F8301042EAC102DA6194F831103B
:1017B00042EAC122DA6194F83210C90401F4F0015E
:1017C0000A43DA6194F833E094F832C04FEA0E1716
:1017D00007F4FE6151EA1C1100F05C83A1F5607111
:1017E00042EAC152DA6195F8331021F07F0142EAF2
:1017F0000162DA6194F8372052095A6294F838107D
:1018000042EAC1025A6294F8391042EAC1225A628D
:1018100094F83A10C90401F4F0010A435A6294F8AA
:101820003BE094F83AC04FEA0E1707F4FE6151EA24
:101830001C1100F02D83A1F5607142EAC1525A6279
:1018400095F83B1021F07F0142EA01625A6294F858
:101850003F2052099A6294F8401042EAC1029A620B
:1018600094F8411042EAC1229A6294F84210C904E5
:1018700001F4F0010A439A6294F843E094F842C0FC
:101880004FEA0E1707F4FE6151EA1C1100F0FE82C8
:10189000A1F5607142EAC1529A6295F8431021F0B5
:1018A0007F0142EA01629A6294F847205209DA62A3
:1018B00094F8481042EAC102DA6294F8491042EA08
:1018C000C122DA6294F84A10C90401F4F0010A4313
:1018D000DA6294F84BE094F84AC04FEA0E1707F426
:1018E000FE6151EA1C1100F0C281A1F5607142EA6B
:1018F000C152DA6295F84B1021F07F0142EA016291
:10190000DA621B6B984772E698470028BFF684AEF0
:1019100094F8F8340193002B3FF44FAED5F8FC3423
:1019200040F6C412C3EB0A0393427FF642AEFF2196
:10193000FE271C4B85F81C120821002285F81D7219
:1019400085F81E12F7270A2103F1090085F82322E2
:1019500085F8242285F8252285F8262285F8272275
:1019600085F8282285F8292285F82A2285F81F2261
:1019700085F8222285F8207285F8211201E013F8FB
:10198000011F98420A44FAD1029BD24384F82B22C9
:10199000984603F10F07FF210CE000BFFF00008015
:1019A000F90D00000193FF1F04F05CFC47450BD0CC
:1019B00018F8011F626813681B685B450846F3D07E
:1019C000104698474745F3D133680993099BE36074
:1019D00094F8F8340193019BC4F8FCA4002B3FF465
:1019E000ECADA44EA44D0FCE0FC52B46326823F8A4
:1019F00017290126FF210022A8194FF0120EFE27F9
:101A000084F82362E825172684F81C12072184F83D
:101A100024E284F8252284F8262284F8272284F8F8
:101A20001F2284F8222284F81D7284F81E6284F832
:101A3000205284F8211201E013F8011F98420A4451
:101A4000FAD1029DD24384F83A2205F11E06FF2105
:101A500005E004F007FCB5420BD015F8011F6268E1
:101A600013681B685B450846F3D010469847B5429B
:101A7000F3D1012003F05CFB13B0BDE8F08FD5F883
:101A8000F024D5F8E834A918013B01320877C5F8ED
:101A9000F024C5F8E834002B7FF4A9AD0823C4F87E
:101AA000E434A4E501220AF11403C5F8E424C5F8DE
:101AB00004359CE5FE2871D095F8F8240023C5F87C
:101AC000E434002A7FF493ADFF21FE276B4B85F8A9
:101AD0001C12082185F81D7285F81E12F7270A21AD
:101AE00085F8232285F8242285F8252285F82622E8
:101AF00085F8272285F8282285F8292285F82A22C8
:101B000085F81F2285F8222203F1090085F820724A
:101B100085F8211201E013F8011F83420A44FAD12B
:101B2000029BD24384F82B221F4603F10F08FF21AA
:101B300005E004F097FB47450BD017F8011F6268DA
:101B400013681B685B450846F3D010469847474525
:101B5000F3D133680C930C9BE36048E50022032328
:101B6000C5F8E804C5F8F404C5F8F024C5F8E43471
:101B70003DE5D5F8E83403EB00200423C5F8E8047C
:101B8000C5F8E43433E53E4A1A40002A26DBFF2A32
:101B90000CBF05230023C4F8E43428E50223C5F86C
:101BA000E43424E50623C5F8EC04C5F8F404C5F8CC
:101BB000E4341CE5D5F8EC34D5F8E82403EB002335
:101BC0000721C5F8EC34C5F8E414002A3FF466AFE9
:101BD0000DE52C4B93F8F8340193EAE4013A62F0F6
:101BE000FF020132D3E7013A62F0FF0201325FE502
:101BF000002385F8F834FAE439469CE533680F93FE
:101C00000F9BEA682048316811919B1A296ADFF816
:101C100084E0DFF88480DDF844C0EA69A0FB0307B4
:101C2000BF094FF47A708E4400FB173308FB03E3BF
:101C30000393154B1549A3FB0C3E4FEA9E1E039BD5
:101C4000013A00FB1EC03A4408FB1033CEEB0202FF
:101C5000081F6B612A6102F0F5FF33681093109B37
:101C6000C5F80035C3E4184609499047BFE47146FA
:101C700042E600BFA87F00000893FF1F0193FF1FEB
:101C8000FF000080E090FF1FD34D6210F490FF1F13
:101C9000FC90FF1F00CA9A3B40420F00EF69D5F845
:101CA00010359F4206D9B900D5F8180505F0D6F8C9
:101CB000C5F81805C4F81075002F00F0EF80A64A8B
:101CC000042302F2145E002792F8221092F821C039
:101CD00092F82000090441EA0C2192F823C0014344
:101CE00041EA0C61C4F81415D4F81815DEF80000A8
:101CF00041F82700D4F810050137B842194602F11F
:101D0000040203F10403DFD8059301F10B0301F191
:101D1000090201F10808039301F10C0304924746FC
:101D2000481D01F1060E01F1070C01F10A020693AC
:101D3000A644059B211823449EF81C0091F81CE042
:101D40001B7FD4F81C15A44400049CF81CC040EA76
:101D50000E20034343EA0C638B420AD99900D5F85D
:101D600024050792059305F079F8079A059BC5F8B5
:101D70002405C4F81C35002B00F0EB80DFF8E4E10B
:101D8000EB1900219A7F93F81DC0187F120442EAD4
:101D90000C2293F81FC0024342EA0C62C4F82025CB
:101DA000D4F82425DEF8000042F82100D4F81C25E0
:101DB00001318A42384603F1040307F10407E1D8F0
:101DC000431D0493C31DB846821D039300F1080709
:101DD000049B23442244187F039B117FD4F82825B9
:101DE000A04423449E46090498F81C309EF81C80A9
:101DF00041EA00210B4343EA0868904507D94FEABE
:101E00008801D5F8300505F029F8C5F83005C4F883
:101E10002885B8F1000F34D0DFF84CE100210EF531
:101E2000A26C07F11C080023A0441A4618F8010B05
:101E300098400833202B42EA0002F7D1381D0244B3
:101E400082420AD907F11F0323440746013793F85A
:101E5000018003F8018BBA42F8D8A3184FF00007AD
:101E60000138DF767044D4F83035C4F82C05DCF83E
:101E7000000043F82100D4F8283501318B42174681
:101E8000CFD8012384F80835FFF7B1BB714606E5CA
:101E90007146D7E47146A8E4714679E40C230693B1
:101EA0000B23039309234FF00808049304234746A8
:101EB0000A224FF0070C4FF0060E0520059337E776
:101EC0002648A0F22A2100F8073CFE2781F81C22B0
:101ED0004FF0080C0A4681F8243281F8253281F847
:101EE000263281F8273281F8283281F8293281F8A8
:101EF0002A3281F81D7281F81F3281F82232A0F156
:101F0000090EF72781F81EC20A2182F8207282F892
:101F10002112724601E012F8011F82420B44FAD1ED
:101F20000F4FDB43A7F10F02029284F82B32904649
:101F3000FF2105E004F096F9B84517D018F8011F05
:101F4000626813681B685B450846F3D010469847E3
:101F5000F2E7069F3CE700BFE090FF1F0A93FF1FD8
:101F60000B93FF1F0096FF1FFC90FF1F33680B931E
:101F7000D44BCDF804A01A460B9BE36092465AF866
:101F8000043F002B00F0BF8058689A6801680392F4
:101F9000D3F800908B689847DAF80030804658688C
:101FA0000368DB689847DAF80030039A1E69632EED
:101FB000074604DD94F8F834002B00F0A480C2F347
:101FC0000723484684F8232284F8243205F058F980
:101FD0000346020A000C4FEA136E494684F8262293
:101FE00084F827021A46B84884F82532039384F807
:101FF00028E202F043FE404605F042F9039B024608
:1020000003F2292020440633002122FA01FE083180
:10201000202900F801EBF8D1AC48043341461844BC
:1020200002EB030802F02AFE384605F029F908F20F
:10203000232281462244002329FA03F10833202B6E
:1020400002F8011BF8D1A14B08F10408394603EB53
:1020500008004A4602F012FE09EB0800071D5FFA6D
:1020600087FCC7F3072E04EB00080CEB0E010022DF
:10207000C943022388F8243288F8232288F82522CD
:1020800088F8262284F82012F1B246F30726FF23AF
:102090004FF0FE0884F822627E1C84F81EC284F889
:1020A0001FE284F81C3284F81D8284F821120BDBB5
:1020B00000F22626864B2E4401E013F8011FB3429E
:1020C0000A44FAD1D343DBB2E2190837B7F5007FEF
:1020D00082F8233200F31D81002F14DD00F2272047
:1020E0007C4E2F1803E004F0BDF8BE420BD06268AE
:1020F00016F8011F13681B685B450846F3D01046AD
:102100009847BE42F3D1744B9A457FF438AFDDF85F
:1021100004A0CDF80CA0994659F8040F002800F04F
:10212000C18090E8080481689A6801916B498A42ED
:1021300040F0E9806A4EDA686A498A4240F0DD8000
:10214000DFF8AC815B68684A934240F0D380476B0C
:10215000632F04DD94F8F834002B00F0A380CAF359
:102160000723019884F8243284F823A205F088F824
:102170008246020A000C019984F826224FEA1A6E60
:10218000524684F82702504884F828E284F825A2B1
:1021900002F074FD304605F073F802460AF2292079
:1021A00020440AF10603002122FA01FE0831202909
:1021B00000F801EBF8D1DFF814A1043331460AEB43
:1021C0000300D61802F05AFD404605F059F806F211
:1021D000232103462144002223FA02F00832202A58
:1021E00001F8010BF8D1043641461A460AEB060005
:1021F000019302F043FD019B33441E1D5FFA86FCF0
:10220000C6F3072E04EB03080CEB0E000021C043BD
:10221000022288F8242288F8231288F8251288F8E8
:10222000261284F82002F8B247F30727FF224FF066
:10223000FE0884F82272771C84F81EC284F81FE21C
:1022400084F81C2284F81D8284F821020BDB03F23F
:1022500026271F4A2F4401E012F8010F974201443C
:10226000FAD1CA43D2B2A1190836B6F5007F81F877
:10227000232200F39C80002E14DD03F22723154F48
:10228000EE1803E003F0EEFFBE420BD0626817F8D1
:10229000011F13681B685B450846F3D0104698473A
:1022A000BE42F3D1114B99457FF436AFDDF80CA057
:1022B000C4F8FCA40123C4F800A584F8F834FFF79F
:1022C00090BB00BFF894FF1F0993FF1F0393FF1FEC
:1022D0000193FF1FFB92FF1F5C95FF1F0507000086
:1022E000347F00000D07000001070000C095FF1FAC
:1022F000487F0000984707462AE790478046D9F86C
:10230000000003681EE790470646D9F800000368FE
:1023100011E74E4F4E4E0FCF0FC60FCF0FC60FCF48
:102320000FC697E8030000234FF0030E3827FF2263
:1023300085F823E285F824724FF0FE0E3D2785F8DC
:10234000253285F8263285F8273286E80300C22137
:1023500085F81C220722F01D85F81F3285F82232ED
:10236000373E85F81DE285F81E7285F8201285F843
:10237000212201E016F8012F86421344FAD1354E8E
:10238000DB4384F86032A6F14407FF2006E003F047
:1023900069FFBE423FF4B7AE17F8010F62681368D9
:1023A0001B685B450146F2D010469847F1E7274F7E
:1023B000274E0FCF0FC60FCF0FC60FCF0FC697E810
:1023C000030000234FF0030E3827FF2285F823E295
:1023D00085F824724FF0FE0E3D2785F8253285F8EA
:1023E000263285F8273286E80300C22185F81C22B0
:1023F0000722F01D85F81F3285F82232373E85F816
:102400001DE285F81E7285F8201285F8212201E070
:1024100016F8012FB0421344FAD10E4EDB4384F874
:102420006032A6F14407FF2006E003F01BFFB7422D
:102430003FF438AF17F8010F626813681B685B45FB
:102440000146F2D010469847F1E700BF6C7F0000CC
:102450000893FF1F4093FF1F2DE9F0416549664B2C
:10246000664A0968664C1B68126888B003A8009128
:10247000644902F041FB2378039E049D002B00F089
:10248000AF80614B1868404204F05AFA5F4904F08B
:102490005FFB04F06FFC63780746002B00F09D8023
:1024A0005B4B1868404204F04BFA584904F050FB6B
:1024B00004F060FC574B584A1860002ED4BF01232B
:1024C0000023002D23701760D4BF01230023324660
:1024D000804601215148637002F08AFB2A4602219E
:1024E0004F48504D02F084FB3A46434645494E4F13
:1024F00005A802F00DFB4D490598CC68069A2368A3
:1025000089681E68079B6860BE42AA60EB606AD15A
:10251000632903DD94F8F854002D5BD0060A050CFE
:102520004FEA106E170A84F8230284F82722180C49
:1025300084F8246284F82552160C1D0A120E84F8C1
:102540002B3284F826E21B0E84F828724FF0FF0E1F
:1025500084F82962FE2784F82A220C2684F82C525B
:10256000002284F82D02F325C8B241F3072184F834
:102570002E3284F8221284F81CE284F81D7284F84A
:102580001E6284F81F2284F8205284F8210204F28B
:10259000212304F22E2101E013F8010F9942024495
:1025A000FAD1D243224E84F82F2204F21B2504F2E2
:1025B0002F2703E003F056FEAF420BD0626815F8F8
:1025C000011F13681B68B3420846F3D010469847B2
:1025D000AF42F3D108B0BDE8F0810D4B186862E757
:1025E000094B186850E72A462046334608B0BDE834
:1025F000F04118471496FF1FDC97FF1FD897FF1F65
:10260000BC97FF1FB090FF1FCC90FF1F713DAA3FEA
:10261000C097FF1FD890FF1FB897FF1F9890FF1F0C
:102620007C90FF1FE097FF1F79130000C497FF1FE6
:102630002D0900002DE9F04F564895B002F0CCF876
:10264000002840F05F83544802F0C6F8002840F0AC
:102650004A83524E524C33680793079B22689B1A59
:10266000B3F5FA7F2CD9DFF86891D9F8000000287B
:1026700040F3068304F064F94A4F4B4DDFF8548170
:102680000146386804F064FA04F09AFB02F0CCF8D2
:1026900004F070FB2860D8F80000002800F3FB82EB
:1026A000424B434D00221A6033680893089B236015
:1026B000002200233A602A60C9F80030C8F80030D0
:1026C00033683C4C0493049B2268344D9B1A312B95
:1026D00000F202833368384A0693069B12689B1AFD
:1026E000B3F5C87F06D335483549364A0023036021
:1026F0000B6013603368344C0993DDF824B0D4F8D0
:10270000003542F6F822C3EB0B03934284BF00234B
:1027100084F8F834D4F8E4342B4A33B1D2F80435D1
:102720009B4584BF0023C2F8E434284F264DA2699C
:1027300032B133680D930D9BCBEB03039A4225D343
:10274000606803685B69BB4240F0A58103F0A0FCB0
:102750000028C0F2A481D4F8F434D4F8E424DFF8DB
:1027600068E00344072AC4F8F43400F081819ABB7E
:10277000FF2800F0F38133680C930C9B41F2883101
:10278000CBEB03038B42D2D98EF8F82415B0BDE809
:10279000F08F00BF1896FF1FE896FF1F1498FF1FC9
:1027A000DC90FF1F7890FF1FCC90FF1FC097FF1F8A
:1027B000AC90FF1F9490FF1F9090FF1FD897FF1FB2
:1027C000DC97FF1F1496FF1FE090FF1F1507000006
:1027D000D090FF1FD490FF1F012A00F0D181022A60
:1027E00000F02282032A00F02A82042A00F03182BB
:1027F000052A00F03D82062A00F05F82082A96D161
:10280000DA4A1A4000239A42C4F8E434C0F28E82B5
:10281000FF2A8CD1D4F8EC34DFF85893002B00F069
:1028200008840A2B00F09782062B00F0E5820B2B20
:1028300000F08182BC3355F82330002B3FF477AF92
:102840001A68CB4912688A4240F0ED83EA7F520948
:102850005A6195F8201042EAC1025A6195F8211098
:1028600042EAC1225A6195F82210C90401F4F0012C
:102870000A435A6195F823E095F822C04FEA0E10FA
:1028800000F4FE6151EA1C1103F10C0000F06182BA
:10289000A1F5607142EAC1525A6195F8231021F006
:1028A0007F0142EA01625A6194F8272052099A6135
:1028B00094F8281042EAC1029A6194F8291042EA79
:1028C000C1229A6194F82A10C90401F4F0010A4364
:1028D0009A6194F82BC094F82A804FEA0C1E0EF4EB
:1028E000FE6151EA181100F03282A1F5607142EAEE
:1028F000C1529A6195F82B1021F07F0142EA0162E2
:102900009A6194F82F205209DA6194F8301042EA63
:10291000C102DA6194F8311042EAC122DA6194F816
:102920003210C90401F4F0010A43DA6194F833C0AB
:1029300094F832804FEA0C1E0EF4FE6151EA181131
:1029400000F00382A1F5607142EAC152DA6195F8A4
:10295000331021F07F0142EA0162DA6194F83720F6
:1029600052095A6294F8381042EAC1025A6294F845
:10297000391042EAC1225A6294F83A10C90401F4AB
:10298000F0010A435A6294F83BC094F83A804FEA47
:102990000C1E0EF4FE6151EA181100F0D481A1F56D
:1029A000607142EAC1525A6295F83B1021F07F01F2
:1029B00042EA01625A6294F83F2052099A6294F8FE
:1029C000401042EAC1029A6294F8411042EAC122E0
:1029D0009A6294F84210C90401F4F0010A439A6221
:1029E00094F843C094F842804FEA0C1E0EF4FE6146
:1029F00051EA181100F0A581A1F5607142EAC152B7
:102A00009A6295F8431021F07F0142EA01629A62CE
:102A100094F847205209DA6294F8481042EAC10259
:102A2000DA6294F8491042EAC122DA6294F84A1054
:102A3000C90401F4F0010A43DA6294F84BC094F837
:102A40004A804FEA0C1E0EF4FE6151EA181100F0A4
:102A50007681A1F5607142EAC152DA6295F84B10B5
:102A600021F07F0142EA0162DA621B6B98475EE661
:102A7000D5F8F024D5F8E834A918013B01320877DD
:102A8000C5F8F024C5F8E834002B7FF450AE0823D5
:102A9000C4F8E4344BE698470028BFF65CAE94F8DF
:102AA000F8343448002B3FF471AED0F8FC3440F6D3
:102AB000C412C3EB0B0393427FF668AEFF23FE21E3
:102AC000002280F81C3280F81D12F72308250A2105
:102AD00080F8203280F8232280F8242280F82522F2
:102AE00080F8262280F8272280F8282280F82922E0
:102AF00080F82A2280F81F2280F8222280F81E52B5
:102B000080F8211200F2212300F22A2001E013F8BC
:102B1000011F98420A44FAD1174F184DD24384F846
:102B20002B2207F10F08FF2005E003F09BFB474530
:102B30000BD017F8010F626813681B68AB4201469F
:102B4000F3D0104698474745F3D133681193119B52
:102B5000C4F8FCB4E36015B0BDE8F08F01220BF1BE
:102B60001403C5F8E424C5F80435E0E5FF0000804F
:102B7000F90D0000E090FF1FFC92FF1F2D090000DF
:102B8000FE2871D095F8F8240023C5F8E434002A13
:102B90007FF4CDADFF23FE21082085F81C3285F897
:102BA0001D12F7230A2185F8203285F823220EF220
:102BB000212385F8242285F8252285F8262285F808
:102BC000272285F8282285F8292285F82A2285F8E7
:102BD0001F2285F8222285F81E0285F821120EF2A6
:102BE0002A2E01E013F8011F73450A44FAD1DFF8D9
:102BF000F891DFF8F881D24384F82B2209F10F0A0B
:102C0000FF2101E019F8011F626813681B68434542
:102C1000084640F0638203F025FBD145F2D13368CA
:102C20000B930B9BE36082E500220323C5F8E804C5
:102C3000C5F8F404C5F8F024C5F8E43477E5D5F810
:102C4000E83403EB00200423C5F8E804C5F8E434B5
:102C50006DE55B4A1A40002A63DBFF2A0CBF05239F
:102C60000023C4F8E43462E50223C5F8E4345EE5E9
:102C70000623C5F8EC04C5F8F404C5F8E43456E5B9
:102C8000DFF850814F4BD8F800004F4F002200284A
:102C90001A607FF705AD03F053FE4C4DDFF850A1ED
:102CA0000146286803F054FF04F08AF801F0BCFDE7
:102CB00004F060F8CAF80000F6E4D5F8EC34D5F872
:102CC000E82403EB00230721C5F8EC34C5F8E4142D
:102CD000002A3FF4DCAE2AE5FFF7BEFB2B68059324
:102CE000059B2360F6E4394D394801F081FD03F07E
:102CF00023FE296803F070FD364A2860136801330B
:102D00001360A6E4304F344801F072FD03F014FE66
:102D1000396803F061FD314A38601368013313608C
:102D200091E4013A62F0FF02013296E7013A62F063
:102D3000FF0201326CE5002385F8F834F7E46146C0
:102D40008EE661465FE6614630E6614601E6614631
:102D5000D2E57146A3E533680E930E9BEA683168AD
:102D600010911F49286ADFF88CC0DDF840809B1A5B
:102D7000A1FB031E4FEA9E1E4FF47A71844419484A
:102D8000EA6901FB1E3300FB03CC154BA3FB083A99
:102D90004FEA9A1A013A01FB1A81724400FB11C3EF
:102DA000CAEB020209F1140109F110006B612A61FA
:102DB00001F048FF33680F930F9BC5F80035B6E468
:102DC000FF000080CC90FF1F7890FF1FAC90FF1F8A
:102DD000E896FF1FD490FF1F1896FF1FD090FF1F8B
:102DE000D34D621040420F00FC92FF1F2D090000DE
:102DF000C097FF1F00CA9A3BD5F81C80D5F8103544
:102E0000984507D94FEA8801D5F8180504F026F847
:102E1000C5F81805C4F81085B8F1000F00F0F1806E
:102E2000B04A042102F2145C4FF0000E92F82230F6
:102E300092F8218092F820001B0443EA082392F8BC
:102E40002380034343EA0863C4F81435D4F81835E3
:102E5000DCF8000043F82E00D4F810350EF1010E16
:102E60007345084602F1040201F10401DED8019124
:102E700000F10B0100F1080A009100F10C01D046AD
:102E800000F1050E00F1060C00F1070900F109033D
:102E900000F10A020291A44401999CF81CC0A644C6
:102EA00021449EF81C00097FA1444FEA0C4C99F87C
:102EB0001CE04CEA002C4CEA010141EA0E69D4F80E
:102EC0001C1589450BD94FEA8901D5F824050392D1
:102ED000019303F0C3FF039A019BC5F82405C4F8CE
:102EE0001C95B9F1000F00F08980DFF804E205EBD2
:102EF00008020021937F92F81DC0107F1B0443EA53
:102F00000C2392F81FC0034343EA0C63C4F8203536
:102F1000D4F82435DEF8000043F82100D4F81C353D
:102F200001318B42404602F1040208F10408E1D865
:102F3000C11DC246431D821D009100F108082344B3
:102F40002244187F009B117FD4F828252344A244F3
:102F50009E4609049AF81C309EF81C9041EA002114
:102F60000B4343EA0969914507D94FEA8901D5F82E
:102F7000300503F073FFC5F83005C4F82895B9F1A2
:102F8000000F36D0DFF86CE100220EF5A2699446FE
:102F900008F11C0A0023A24419461AF8010B9840B4
:102FA0000833202B41EA0001F7D108F10400014465
:102FB00081420BD908F11F032344804608F1010820
:102FC00093F801A003F801AB4145F7D86318013825
:102FD00083F81BC07044D4F83035C4F82C05D9F8F8
:102FE000000043F82200D4F8283501329342884685
:102FF000CED8012384F80835FFF799BBDDF80880A7
:103000009DE70C234FF0080A029304210B23009341
:10301000D0460A2209234FF007094FF0060C4FF063
:10302000050E019137E709F11C0118469047FFF79B
:103030007EBB9A4609F223212B4B119311A890468F
:10304000CDF848A0CDF84CA0FDF710FA0146C1F329
:103050000722C0B28318DB4389F81E02FE250A202E
:103060004F1C89F81C8289F822A289F8203289F83D
:103070001F2289F81D5289F82102C0F2A58201F2AF
:10308000222553464D4409F2212201E012F8010F96
:10309000AA420344FAD1DB43DBB2621801F108050E
:1030A000B5F5007F82F823320E4825DC002D25DDA2
:1030B00001F223210D4D471800F21B2803E003F015
:1030C000D1F8B8451AD0626818F8011F13681B6858
:1030D000AB420846F3D010469847F2E710469847AF
:1030E0009BE500BFE090FF1F207D00002D09000040
:1030F0000096FF1FFC90FF1FFEF7C6F833680A9387
:103100008A4E0A9BE36006F164030093A6F583658B
:1031100056F8043F002B00F0238158689A68016834
:103120000192D3F800A08B68984733680746586827
:103130000368DB6898473368019AD3F81080B8F1C8
:10314000630F814604DD94F8F834002B00F0088109
:10315000C2F3072384F8232284F82432504604F073
:103160008FF803464FEA136E020A000C514684F8AA
:10317000253284F8262284F827021A4684F828E2A9
:103180006B48019301F07AFD384604F079F8019B11
:10319000024603F2292020440633002122FA01FED0
:1031A0000831202900F801EBF8D162480433394690
:1031B000184402EB030A01F061FD484604F060F890
:1031C0000AF2232307462344002227FA02F1083299
:1031D000202A03F8011BF8D1564B0AF1040A49468C
:1031E00003EB0A003A46574401F048FD07F1040E8C
:1031F000E1195FFA8EFCCEF30720002202230CEBCC
:10320000000A81F8243281F8232281F8252281F8EE
:1032100026226FEA0A0A5FFA88F1FF234FF0FE09BF
:1032200048F30728BEF1FF3F84F820A284F81EC2AD
:1032300084F81F0284F81C3284F81D9284F821124D
:1032400084F822820BDB07F226203B4B284401E066
:1032500013F8011F83420A44FAD1D343DBB204EBD3
:103260000E020EF1080EBEF5007F82F8233218DC44
:10327000BEF1000F74DD07F22727DFF8CC802F4462
:1032800003E002F0EFFFB8456AD062682B4813688C
:1032900018F8011F1B6883420846F2D01046984771
:1032A000F1E7DFF8A8E0264FBEE80F000FC7BEE841
:1032B0000F000FC7BEE80F000FC79EE803000023F2
:1032C0004FF0030C4FF0380EFF2285F823C285F82B
:1032D00024E24FF0FE0C4FF03D0E85F8253285F8C4
:1032E000263285F8273287E80300C22085F81C22A1
:1032F0000722A7F1370185F81F3285F822320737F8
:1033000085F81DC285F81EE285F8200285F8212285
:1033100001E011F8012F8F421344FAD1094FDB432A
:1033200084F8603207F14408FF2113E0F894FF1F8E
:103330000993FF1F0393FF1F0193FF1F2D09000037
:103340000893FF1FFC92FF1FFB92FF1F6C7F000082
:1033500017F8011F606803681B6898474745F7D155
:10336000009B9E427FF4D4AEDFF88CA2CDF804B06F
:103370009B465BF8040F002800F00F8190E80802DC
:1033800092499A68D0F808808A4200F019819047E3
:103390000746DBF800000368DA688D498A4200F0CE
:1033A0000D8190470646DBF8000003685B68894A98
:1033B000934240F00081456B632D04DD94F8F834AE
:1033C000002B00F0EA80C9F3072384F8239284F8E5
:1033D0002432404603F054FF81464FEA1963020A43
:1033E000000C414684F8283284F8262284F827020B
:1033F0004A4684F82592784801F040FC384603F0AC
:103400003FFF024609F22920204409F1060300216A
:1034100022FA01FE0831202900F801EBF8D16F48AB
:10342000043339461844D71801F028FC304603F01D
:1034300027FF07F2232380462344002228FA02F1C3
:103440000832202A03F8011BF8D10437634B3146B8
:1034500008EB0706D8194246371D01F00FFC5FFA4A
:1034600087FCC7F3072EA3190CEB0E000022C04304
:10347000022183F8241283F8232283F8252283F87B
:10348000262284F82002E8B245F30725FE23FF2117
:1034900084F822527D1C84F81D3284F81EC284F800
:1034A0001FE284F81C1284F821024D4BC0F28A807E
:1034B00006F22621194403F2212301E013F8010F3B
:1034C00099420244FAD1D343DBB2E2190837B7F587
:1034D000007F82F82332424D17DC002F5DDD06F2BB
:1034E00027262E443F4F05F21B2503E002F0BAFECB
:1034F000AE4252D0626815F8011F13681B68BB42C8
:103500000846F3D010469847F2E7374F0FCF05F53E
:103510000A760FC60FCF0FC60FCF0FC697E803006E
:1035200000234FF0030E3827FF2285F823E285F8A9
:1035300024724FF0FE0E3D2785F8253285F826329D
:1035400085F8273286E80300C22085F81C2207226E
:10355000A6F1370185F81F3285F82232073685F843
:103560001DE285F81E7285F8200285F8212201E00F
:1035700011F8012F8E421344FAD11C4DDB4384F81D
:10358000603205F14406FF2101E015F8011F606873
:1035900003681B689847AE42F7D1D3457FF4E9AE84
:1035A000DDF804B0C4F8FCB40123C4F800B584F815
:1035B000F834FFF7EBB898470546FDE60C4EF5E604
:1035C0000C4FE9E60B4680E7434666E50507000039
:1035D0000D070000010700000993FF1F0393FF1F61
:1035E000E090FF1F2D0900006C7F0000FC92FF1F80
:1035F000487F0000347F0000C095FF1F2DE9F04F89
:103600008DB0D34AD34B06920022044600F5836561
:1036100000F27C46ADF81C200B92089309930A93A4
:1036200055F8043F002B00F0D28058681F680168ED
:103630009A6808978B68ADF81C2098472B6809900A
:1036400058680368DB689847236829680A904FF434
:1036500000721B68D1F810800B92BF4A93428246D9
:1036600040F0BD81B8F1630F04DD94F8F834002B0D
:1036700000F0AD80BDF81C30DDF8209084F82332D6
:103680001B0A84F82432484603F0FAFD07463B0E35
:103690003A0C000A494684F8283284F8257284F8E6
:1036A000260284F8272204F229203A4601F0E6FA9D
:1036B000DDF824B0584603F0E3FD04F22329791D18
:1036C000024606374944002322FA03F00833202B30
:1036D00001F8010FF8D10437594609EB07001744E8
:1036E00001F0CCFA504603F0CBFD09EB070283460C
:1036F00000232BFA03F10833202B02F8011BF8D129
:103700000437514609EB07005A4601F0B7FA0BEBB4
:10371000070E0EF104075FFA87FAC7F3072C09EBCF
:103720000E010AEB0C000022C0434FF0020B09F817
:103730000E20FF238A70CA7081F801B04FF0FE0995
:103740005FFA88F184F8200248F30728781C84F88F
:103750001EA284F81FC284F81C3284F81D9284F8DB
:10376000211284F82282C0F226820EF22620204402
:1037700004F2212301E013F8011F98420A44FAD110
:10378000D243D2B2E11907F10803B3F5007F81F803
:10379000232200F34181002B04F5077717DD0EF19A
:1037A0000B0EDFF8CC91774404F21B2803E002F003
:1037B00059FD47450BD0626818F8011F13681B6854
:1037C0004B450846F3D0104698474745F3D1AE42E3
:1037D0007FF426AF04F59C6956F8040F002800F02A
:1037E000F58003688268416808929A68ADF81C10F9
:1037F0005A498A4240F00B81594A0992DA6859497C
:103800008A4240F0FF80584A21680A924FF40072C1
:103810005B680D680B92554A934240F0F080D0F8F7
:1038200034804D4FBD4240F0E280B8F1630F04DDBB
:1038300094F8F834002B00F0C980BDF81C30089DC6
:1038400084F823321B0A84F82432284603F018FD3A
:1038500082464FEA1A634FEA1A42000A294684F860
:10386000283284F825A284F8260284F8272204F25C
:103870002920524601F002FA09990191084603F005
:10388000FFFC04F223250AF10502019983460AF19F
:10389000060A2A4400232BFA03F00833202B02F8EF
:1038A000010FF8D10AF1040A5A4605EB0A0001F0AB
:1038B000E5F90A990191084603F0E2FCD344019925
:1038C000824605EB0B0200232AFA03F00833202B73
:1038D00002F8010BF8D10BF1040B05EB0B0052467B
:1038E00001F0CCF90AEB0B020B9BAB54111D1544F4
:1038F0005FFA81FCC1F3072E4FEA132B4FEA134AFC
:103900000CEB0E001B0E85F801B085F802A0EB70E1
:10391000C0435FFA88F54FF0FF0B4FF0FE0A48F303
:1039200007284B1C84F8200284F81EC284F81FE28A
:1039300084F81CB284F81DA284F8215284F82282F3
:1039400021DB02F2262EA64404F22123002013E0FC
:10395000387D0000A47F00007913000005070000F7
:10396000347F00000D070000487F000001070000C1
:103970002D09000013F8015F73452844FAD16FEA5E
:10398000000B5FFA8BFB63180831B1F5007F83F8F9
:1039900023B200F3AD80002904F5077716DD0B3262
:1039A000DFF83882174404F21B2503E002F05AFCCA
:1039B000AF420BD0626815F8011F13681B684345BE
:1039C0000846F3D010469847AF42F3D1B1457FF493
:1039D00003AF012384F8F8340DB0BDE8F08F414601
:1039E00006AA20469847AE427FF41AAEF2E6414658
:1039F00006AA2046A847B1457FF4EEAEE9E798470E
:103A000080460EE79047024630680368FCE6904720
:103A1000024630680368F0E66D49039103226D4960
:103A2000236805918DF810201B686B498B4240F08C
:103A3000C980684F84F823220023382207F1300818
:103A400084F8242284F8253284F8263284F8273238
:103A500004F50A7EBC46BCE80F00C445CEF8000061
:103A6000CEF80410CEF80820CEF80C3067460EF1E0
:103A7000100EEFD103CF0022CEF80000CEF80410D4
:103A80003D20C2234FF0FF0CFE27072184F81E02C1
:103A900084F8203284F81CC284F81D7284F81F2236
:103AA00084F8222284F8211204F2212304F25F20F8
:103AB00001E013F8011F98420A44FAD1D243DFF81B
:103AC0001C9184F8602204F21B2704F5187804E0A6
:103AD00002F0C8FB47453FF47AAE626817F8011F51
:103AE00013681B684B450846F2D010469847F1E72B
:103AF000374A0392374D2368059503228DF810202D
:103B00001B68BB4259D10023382184F8232205F1D8
:103B1000300C84F8241284F8253284F8263284F894
:103B2000273204F50A77AE46BEE80F00E645386056
:103B30007960BA60FB60754607F11007F3D103CDD9
:103B40000022386079603D20C2234FF0FF0EFE2531
:103B5000072184F81E0284F8203284F81CE284F8DD
:103B60001D5284F81F2284F8222284F8211204F2C4
:103B7000212304F25F2001E013F8011F98420A4458
:103B8000FAD1D243DFF8548084F8602204F21B2576
:103B900004F5187704E002F065FBBD423FF416AF70
:103BA000626815F8011F13681B6843450846F2D088
:103BB00010469847F1E71A46E4E503AA0721204694
:103BC000984703E703AA072120469847FFE500BF6F
:103BD000507D00006C7F0000791300002D0900006B
:103BE0002DE9F04FD44E93B033680693069DD0F87C
:103BF000003542F6F822EB1A934284BF002380F886
:103C0000F834D0F8E434044633B1D0F80435AB428C
:103C10003CBF0023C0F8E434C84FDFF82CB3A269DE
:103C200032B133680793079B5B1B9A42C0F047820F
:103C3000606803685B69BB4240F0888102F028FA43
:103C40000028C0F28781D4F8F434D4F8E424034483
:103C5000072AC4F8F43400F05C818AB9FF2800F028
:103C60008A8133680893089B41F288315B1B8B4241
:103C7000D5D984F8F8246FF0010013B0BDE8F08FB7
:103C8000012A00F08081022A00F0DE81032A00F080
:103C9000E681042A00F0ED81052A00F0F981062A68
:103CA00000F0FE81082ABAD1A54A1A4000239A42A0
:103CB000C4F8E434C0F27082FF2AB0D1D4F8EC34F6
:103CC000002B00F0BE830A2B00F07B83062B00F054
:103CD0007B820B2B00F06582BC3354F82330002B21
:103CE0009DD01A68974912688A4240F0A483E27F07
:103CF00052095A6194F8201042EAC1025A6194F8BC
:103D0000211042EAC1225A6194F82210C90401F438
:103D1000F0010A435A6194F823E094F822C04FEA74
:103D20000E1000F4FE6151EA1C1103F10C0000F0CA
:103D30008083A1F5607142EAC1525A6194F8231060
:103D400021F07F0142EA01625A6194F8272052096A
:103D50009A6194F8281042EAC1029A6194F82910F5
:103D600042EAC1229A6194F82A10C90401F4F001D0
:103D70000A439A6194F82BC094F82A804FEA0C1EEB
:103D80000EF4FE6151EA181100F05183A1F5607143
:103D900042EAC1529A6194F82B1021F07F0142EA65
:103DA00001629A6194F82F205209DA6194F8301078
:103DB00042EAC102DA6194F8311042EAC122DA61C2
:103DC00094F83210C90401F4F0010A43DA6194F85E
:103DD00033C094F832804FEA0C1E0EF4FE6151EAB3
:103DE000181100F02283A1F5607142EAC152DA6134
:103DF00094F8331021F07F0142EA0162DA6194F80D
:103E0000372052095A6294F8381042EAC1025A62C5
:103E100094F8391042EAC1225A6294F83A10C9045F
:103E200001F4F0010A435A6294F83BC094F83A80D6
:103E30004FEA0C1E0EF4FE6151EA181100F0B78132
:103E4000A1F5607142EAC1525A6294F83B1021F028
:103E50007F0142EA01625A6294F83F2052099A6255
:103E600094F8401042EAC1029A6294F8411042EA82
:103E7000C1229A6294F84210C90401F4F0010A4385
:103E80009A6294F843C094F842804FEA0C1E0EF4F4
:103E9000FE6151EA181100F08881A1F5607142EAD3
:103EA000C1529A6294F8431021F07F0142EA016204
:103EB0009A6294F847205209DA6294F8481042EA6C
:103EC000C102DA6294F8491042EAC122DA6294F837
:103ED0004A10C90401F4F0010A43DA6294F84BC0B5
:103EE00094F84A804FEA0C1E0EF4FE6151EA181154
:103EF00000F05F81A1F5607142EAC152DA6294F884
:103F00004B1021F07F0142EA0162DA621B6B984795
:103F100085E6D4F8F034E2180133C4F8F0341077B1
:103F2000D4F8E834013BC4F8E834002B7FF477AED2
:103F30000823C4F8E43472E61498FF1F1507000044
:103F4000FF000080F90D0000D34D62109847002853
:103F5000BFF679AE94F8F80400283FF48EAED4F89A
:103F6000FC3440F6C412EB1A934200F2AD800020FC
:103F700013B0BDE8F08F012205F11403C4F8E42466
:103F8000C4F804354BE6FE287ED094F8F8240023CC
:103F9000C4F8E434002A7FF442AE874923680F91C5
:103FA0001B68864910928B42119240F0F080FF21ED
:103FB0000820F7234FF0FE0E84F81C120A2184F823
:103FC0001E0284F8203284F8232284F8242284F804
:103FD000252284F8262284F8272284F8282284F8CF
:103FE000292284F82A2284F81F2284F8222284F8C5
:103FF0001DE284F8211204F2212304F22A2001E0B8
:1040000013F8011F98420A44FAD1D243DFF8B49161
:1040100084F82B2204F21B2804F22B2A03E002F07E
:1040200021F9C2450BD0626818F8011F13681B689C
:104030004B450846F3D010469847C245F3D1336844
:104040000993099BE360EAE500220323C4F8E8042E
:10405000C4F8F404C4F8F024C4F8E434DFE5D4F878
:10406000E83403EB00200423C4F8E804C4F8E43483
:10407000D5E5534A1A40002A76DBFF2A0CBF0523F8
:104080000023C4F8E434CAE50223C4F8E434C6E5E6
:104090000623C4F8EC04C4F8F404C4F8E434BEE520
:1040A000D4F8EC34D4F8E82403EB00230721C4F857
:1040B000EC34C4F8E414002A3FF43AAFAFE56FF0F3
:1040C000010013B0BDE8F08F3B4A23680F921B68D4
:1040D0003A4900228B42109211924AD1FF210820C6
:1040E000F723FE2784F81C120A2184F81E0284F8A4
:1040F000203284F8232284F8242284F8252284F8AC
:10410000262284F8272284F8282284F8292284F899
:104110002A2284F81F2284F8222284F81D7284F84F
:10412000211204F2212304F22A2001E013F8011FD6
:1041300098420A44FAD1D243DFF8888084F82B22CF
:1041400004F21B2704F22B2903E002F08BF8B94597
:1041500013D0626817F8011F13681B6843450846AF
:10416000F3D010469847F2E7013A62F0FF020132BD
:1041700083E70FAA0A212046984733680B930B9BCD
:10418000C4F8FC540020E36013B0BDE8F08F0FAA20
:104190000A212046984752E7013A62F0FF020132B5
:1041A0008AE5002384F8F83439E561467CE6614607
:1041B0004DE66146A5E600BF207D000079130000B2
:1041C000FF0000802D090000D4F81C90D4F81035B1
:1041D000994504F11C0807D94FEA8901D4F818055C
:1041E00002F03CFEC4F81805C4F81095B9F1000FB0
:1041F00000F0428104F2145C424604214FF0000EAC
:10420000937992F8059010791B0443EA092392F8F8
:104210000790034343EA0963C4F81435D4F818350A
:10422000DCF8000043F82E00D4F810350EF1010E32
:104230007345084602F1040201F10401E0D803913C
:1042400000F10B0100F1090200F10803029100F1F5
:104250000C010192994600F1050E00F1060C00F1E7
:10426000070A00F10A02049118F80C00039918F8E3
:104270000EE018F801C018F80AA0D4F81C150004C4
:1042800040EA0E2040EA0C0C4CEA0A6A8A450BD937
:104290004FEA8A01D4F824050592039302F0DEFD6B
:1042A000059A039BC4F82405C4F81CA5BAF1000FB5
:1042B00000F0DF8004F5A46E08EB0902002193787A
:1042C00092F801C010781B0443EA0C2392F803C053
:1042D000034343EA0C63C4F82035D4F82435DEF8F0
:1042E000000043F82100D4F81C3501318B424846C8
:1042F00002F1040209F10409E1D8421DC11D4B4637
:1043000001920291821D00F1080918F80200019A39
:1043100018F8033018F80210029A000418F802A0E6
:10432000D4F8282540EA01210B4343EA0A6A924562
:1043300007D94FEA8A01D4F8300502F08FFDC4F89E
:104340003005C4F828A5BAF1000F36D000218E46FA
:1043500004F22C5000231A4608EB090A1AF801CB84
:104360000CFA03FC0833202B42EA0C02F6D109F1C7
:10437000040C624494450BD209F103034344E14623
:1043800009F1010913F801AF03F801AC9145F7D326
:1043900008EB02030CF1FF3C03F801ECC444D4F831
:1043A0003035C4F82CC5D0F800C043F821C0D4F88B
:1043B000283501318B429146CCD8012384F8083549
:1043C0002DE433680C930C9BE168326833480E92FD
:1043D000591A236A0E9AD4F81CE0ABFB01C94FEAC4
:1043E00099194FF47A7C18442D4B0CFB191103FBDF
:1043F0000100ABFB02184FEA98180EF1FF3E0CFBD0
:104400001822CE44214603FB1203C8EB0E022261A0
:1044100004F1100041F8143F00F014FC33680D93D0
:104420000D9BC4F80035FFF7FABB6146E2E4614634
:10443000B3E4714684E4184604F11C019047FFF789
:10444000EEBB226817490F91109311930A2113684C
:1044500020460FAA984733680A930A9BE3602046D8
:10446000FFF7CCF8C4F8FC54C4F800554FF0FF3007
:1044700003E4DDF8109048E70C2209210823049298
:1044800001910B220421029299460A224FF0070A59
:104490004FF0060C4FF0050E0391E5E600CA9A3B7B
:1044A00040420F00207D0000F0B585B00B23009343
:1044B0000522022300213C483C4C3D4D00F076FB98
:1044C000102300931722112300213A4800F06EFBBD
:1044D000394A3A4B019200934FF49672384B39485F
:1044E000002100F07DFA384B384A1B68039303998A
:1044F000374B11603748C4F80C3500214FF4614246
:10450000A2602560606084F8F814C4F81015C4F83F
:104510001815C4F81C15C4F82415C4F82815C4F8D7
:10452000301504F5836204F27C4342F8041F934281
:10453000FBD12949002243F8042F8B42FBD1274AA3
:10454000002102F5007302F8011F9A42FBD12448B2
:10455000002103F8011F83424FF00002F9D1214BE3
:10456000214E1E600127214E2148224DDFF898E0A0
:104570002149A2615F63214C214F9E60214E196346
:104580000021C3F80CE01C611C6259619961D9617A
:1045900059629962D96241608160C1600760686058
:1045A0002A612E6005B0F0BD9890FF1FE090FF1FBC
:1045B000C87D00007C90FF1FD7A3703E5C8FC23E79
:1045C0002DB21D3EB090FF1F1498FF1FDC90FF1FFF
:1045D000687D00002887FF1FC095FF1FFB90FF1F0D
:1045E000FB94FF1F4090FF1FDC7D0000E47F000074
:1045F000E097FF1FC497FF1FB9060000987D0000D9
:10460000807D0000EC7F0000B07D00000539F0B532
:10461000122900F2A680DFE801F06774A4A47C846C
:10462000A4A4A4A4A4A4A4A4A48C949C0A00554B60
:1046300001244FF4806180F8C2401960072A5CD8D9
:10464000012101FA02F313F0EC0300F0968002EA74
:104650000103C2F34005C2F380024B4C80F8CD3019
:104660004A4980F8CE204FF0804380F8CC50236038
:104670000A684FF6FF739A4278D0454B454F434D39
:10468000454900221A604FF6FF763A60482404221A
:104690002E601C600A6090F8C260404C4049414D59
:1046A0000A78414F00234FF0440EC0F8C430C0F8E0
:1046B000C83080F8CF3080F8C03080F8C13044F87E
:1046C00036E090F8C2402B80012303FA04F5374E00
:1046D00047F824002A433027354D0A704FF08044B4
:1046E000377018462C60F0BD324B07244FF48061C0
:1046F000072A80F8C2401960A2D90022154601237A
:10470000ABE72D4B04244FF4806180F8C240196060
:1047100094E72A4B02244FF4806180F8C24019606C
:104720008CE7274B03244FF4806180F8C240196066
:1047300084E7244B05244FF4806180F8C24019605F
:104740007CE7214B06244FF4806180F8C240196059
:1047500074E71E4B00244FF4806180F8C24019605A
:104760006CE7082380F8C2300020F0BD084B1B68BE
:1047700003F07F03482B80D18DE71A4615460B4680
:104780006BE700BF08B0044084E100E0088003400C
:104790000080034004800340548003400C800340A9
:1047A000F097FF1FF297FF1FF497FF1F3EE400E012
:1047B00004E100E01CC0044010C004400CB0044000
:1047C00010B0044014C0044018C0044004B00440B9
:1047D0000122FFF71BBF00BF90F8C02090F8C13046
:1047E0009A422EBFD01A02F11800C01A704700BFBB
:1047F00090F8C13090F8C0109942024610D00133B1
:10480000172B84BF00210B4600EBC30098BFD9B221
:1048100012F83330406882F8C33082F8C110704714
:104820004FF0FF30704700BF08B502F085F8014631
:10483000014802F08DF908BD4054094C70B490F85D
:10484000C240324B90F8CF20E6001D46334482F040
:1048500001025B6880F8CF20002A14BF4826442656
:10486000B3F5604F45F8346000D949BB2849098841
:1048700043EA01435AB390F8CD201AB9C0F8C430C6
:1048800070BC704790F8CE2092B3D0F8C820C0F822
:10489000C43000249B1A002BF2D090F8C02090F86E
:1048A000C1100132172AC8BF00228A42E8D000EBAB
:1048B000C20100F832404B6070BC80F8C0207047E5
:1048C00013490988013943EA0143002AD3D190F8FA
:1048D000CC204AB190F8CE208AB1D0F8C420C0F8DC
:1048E000C83003249B1AD6E7C0F8C83070BC7047A4
:1048F000D0F8C420C0F8C43002249B1ACBE7D0F80B
:10490000C820C0F8C83001249B1AC4E70C800340BB
:10491000F297FF1F38B52D4B1D6815F0800506D0A6
:104920002B4A482119601388013313800125294B34
:10493000294A1B6814781C40E0070ED4A10713D441
:10494000620718D423071DD4E00622D4A10627D479
:1049500062062CD4230631D438BD204B2946186872
:10496000FFF76CFFA107EBD51C4B29465868FFF7F2
:1049700065FF6207E6D5194B29469868FFF75EFF89
:104980002307E1D5154B2946D868FFF757FFE00606
:10499000DCD5124B29461869FFF750FFA106D7D581
:1049A0000E4B29465869FFF749FF6206D2D50B4BDB
:1049B00029469869FFF742FF2306CDD5074B2946C4
:1049C000D869BDE83840FFF739BF00BF0080034019
:1049D000F297FF1F50800340F097FF1FF497FF1FCF
:1049E00038B5426004460170059AA1B10D46013DFB
:1049F00004998160C260EDB218460D4901F0F4FFE0
:104A0000032D98BF0B4B606194BF53F825300223F0
:104A1000A361204638BD0021C260A1601846044948
:104A200001F0E2FF02236061A361204638BD00BFB0
:104A3000DB0F4940108000002DE9F8434E690C4619
:104A400005462C491046984601F0CEFF314602F04B
:104A50007FF828490746404601F0C6FF314602F07C
:104A600077F84FF07C518046A06801F0BDFF4FF011
:104A70007C518146E06801F0B7FF0146484601F0ED
:104A8000ABFE1C498146089801F0AEFF014648463E
:104A900001F0AAFF314602F05BF84146064638466F
:104AA00001F098FE314601F095FE02F063F9D4F86A
:104AB0000490C9F10004A04215DB4845A8BF484650
:104AC00028604146384601F087FE314601F084FEF9
:104AD00002F050F9844208DC4845A8BF48466860A7
:104AE0002846BDE8F8832046EAE720466860284665
:104AF000BDE8F8830000704210B582B00446049B04
:104B000000930023FFF798FF204602B010BD00BFBE
:104B10002DE9F84305468869984617460C4601F08A
:104B20000FFF064607EB080001F00AFF314602F0CE
:104B30000FF8D4F814901C4902F00AF8494601F025
:104B400053FF2860C7EB080001F0FAFE314601F080
:104B5000FFFF154901F0FCFF2378042B1DD0002333
:104B600001466B60484601F03FFF06464FF07C511E
:104B7000A06801F039FF4FF07C510746E06801F072
:104B800033FF0146384601F027FE0146304601F06A
:104B9000DFFFA8602846BDE8F8830146484601F0DB
:104BA00023FF06466860E1E7000070422DE9F0410E
:104BB000044615461F468846069E01F06DFDE8B284
:104BC00084F80680A560E7602661012100F0AAFA5A
:104BD000207B012100F0A6FA207C012100F0A2FA3E
:104BE000207A002100F09AF92046BDE8F08100BF4C
:104BF00070B5151E04460E4612DD0021007B00F044
:104C00008BFA012E18D00021207C00F085FA85EA6D
:104C1000E571A1EBE571207ABDE8704000F07EB946
:104C2000F5D00021007B00F077FA012EEBD00121B6
:104C3000207C00F071FAEAE73146207C00F06CFA43
:104C4000E5E700BF70B40D68064B0468064E6A0ABB
:104C5000A3FB0232D3091C4406FB135304600B6010
:104C600070BC7047834B040000CA9A3B08B5FCF740
:104C700055FCFDF7DFFC01F075FBFAE7844641EADD
:104C8000000313F003036DD1403A41D351F8043BC4
:104C900040F8043B51F8043B40F8043B51F8043B16
:104CA00040F8043B51F8043B40F8043B51F8043B06
:104CB00040F8043B51F8043B40F8043B51F8043BF6
:104CC00040F8043B51F8043B40F8043B51F8043BE6
:104CD00040F8043B51F8043B40F8043B51F8043BD6
:104CE00040F8043B51F8043B40F8043B51F8043BC6
:104CF00040F8043B51F8043B40F8043B51F8043BB6
:104D000040F8043B51F8043B40F8043B403ABDD224
:104D1000303211D351F8043B40F8043B51F8043BC6
:104D200040F8043B51F8043B40F8043B51F8043B85
:104D300040F8043B103AEDD20C3205D351F8043B55
:104D400040F8043B043AF9D2043208D0D2071CBF21
:104D500011F8013B00F8013B01D30B88038060464A
:104D6000704700BF082A13D38B078DD010F00303C0
:104D70008AD0C3F10403D21ADB071CBF11F8013B30
:104D800000F8013B80D331F8023B20F8023B7BE77F
:104D9000043AD9D3013A11F8013B00F8013BF9D2AA
:104DA0000B7803704B7843708B7883706046704744
:104DB00008B5104C08E0236859050DD423681A057E
:104DC0000FD42368DB0411D423685803F3D500F013
:104DD00049FB23685905F1D500F00EF823681A0540
:104DE000EFD500F009F82368DB04EDD500F004F8F6
:104DF000EAE700BF3480044008B5FFF7D9FF00BFE1
:104E0000014B10221A80704700200540704700BFF8
:104E1000094908B50B6830B16A461844A2F58052BA
:104E2000904202D20860184608BD01F0E9FF0C2349
:104E300003604FF0FF3008BD2087FF1F10B40F4BF9
:104E400053F8302092F880422CB1012369B182F8E6
:104E5000803010BC704703EBC0035B681A6841B92F
:104E600022F002021A6010BC704782F8003110BCB8
:104E7000704742F003021A6010BC704720800000A7
:104E80001C4A02EBC00301295B6811D004291BD026
:104E900052F83000002280F8802229B1022920D067
:104EA000032922D01A6070474FF480721A6070474D
:104EB00052F830004FF4A27280F880121A601A681B
:104EC00022F020021A60704752F830104FF4A2729C
:104ED000012081F880021A601A6842F020021A60EC
:104EE000704740F203121A6070474FF481721A60E3
:104EF000704700BF2080000030B4054B054D064CC4
:104F0000002210211A602A602060196030BC7047AE
:104F100014D0034004D0034000D00340282838B503
:104F20002ED0002904464FDD5F4B1B78012505FA82
:104F300003F28A4202D8212837D938BD0338C2B2D9
:104F4000012A3AD9202C4AD0192C48D0574A126845
:104F500002FB011222FA03F31D2800F29B80DFE816
:104F600000F0928B847D9999766F99999999999986
:104F700099999968615A53994C9999999999994530
:104F8000494B1B780B2B08D90C2B1CBF0C3B194130
:104F90000846BDE8384001F0F7BAC3F10C03994068
:104FA0000846BDE8384001F0EFBA2946FFF746FF52
:104FB0002946BDE83840FFF763BF3D4A126802FB4F
:104FC000011222FA03F3C7E72128B6D80021FFF720
:104FD00035FF20460121BDE83840FFF751BF354A73
:104FE000126802FB011222FA03F3B5E73249334A91
:104FF0000B604FF45173136038BD3149314A0B6077
:105000004FF45173136038BD2F49304A0B6040F2A2
:105010004443136038BD2E492E4A0B6040F244438E
:10502000136038BD2C492D4A0B6040F24443136095
:1050300038BD2B492B4A0B6040F24443136038BD06
:1050400029492A4A0B6040F24443136038BD28497D
:10505000284A0B6040F24443136038BD2649274A72
:105060000B6040F24443136038BD2549254A0B606C
:1050700040F24443136038BD2349244A0B604FF487
:105080005173136038BD2249224A0B604FF45173AB
:10509000136038BD212C3FF650AF7F29D4BF0021CB
:1050A0000121204693E700BF2487FF1F08800340AB
:1050B0000890034008800B4010800B4048A004403B
:1050C00018800B404CA004401880034008B00440F6
:1050D0001080034004B004404080034018C00440E6
:1050E0003880034014C004402880034010B00440BE
:1050F000208003400CB004403080034010C00440C6
:10510000488003401CC00440189003403490044081
:105110001090034030900440212801D8FFF78EBE44
:10512000704700BF212801D8FFF7AABE704700BF13
:105130002DE9F843054672B6214F224B224A1B68DF
:105140003C68126862B6520102D5322B88BF013426
:10515000A5B3C3F58C331D4EDFF86890DFF8688087
:1051600003F23F134FF47A72A6FB031302FB04F41D
:1051700004EB131472B6D9F800103A68D8F800E0BE
:1051800062B6C1F58C3303F23F13A6FB03031EF096
:10519000806FC4EB13134FF47A7002D0322988BFAA
:1051A000013200FB0233B3F57A7F04D3013D05D011
:1051B00004F57A74DEE701F0D5F8DBE7BDE8F883A3
:1051C0001498FF1F18E000E004ED00E0398EE3388A
:1051D000F8B52D4B2D49DFF8D0E0DFF8D0C02C4ECC
:1051E0002C4D2D4C2D4A2E4F4FF4000018604FF0DF
:1051F000807018604FF0007018604FF08060186089
:105200004FF00060186000200860282348F6FF7106
:10521000CCF80010CEF80030336013602B602360B0
:105220003B60B3629362092245F8242CC4F8D80F7E
:1052300005F57F65C7F8D41F07F5FF2707F5FA675F
:10524000C6F8F83F2B6006F5FF26C4F8D42F05F505
:10525000FD2504F5FF24386006F2F476114831602C
:1052600005F5FF6504F5FD642B602360026001F025
:105270001BF91920FFF75CFF00F05AFE40F21310F3
:10528000BDE8F840FFF754BF08E100E004800340A8
:1052900014800340248003402C8003401C80034082
:1052A0003480034000800B400C80034008800340A2
:1052B000431E032B14D872B60A4951F8230068B173
:1052C00070B4094C058834F81320466841F823600F
:1052D000521B24F8132062B670BC704762B6704748
:1052E000002070477098FF1F9C99FF1F013803280A
:1052F0000BD872B6074B53F8203043B100205B68DF
:105300000130002BFBD162B6704700207047184671
:10531000F9E700BFC498FF1F30B472B62B4A137868
:105320001D0706D52A4B196A002936D0996A00292B
:1053300041D053781C0706D5254B196C00293ED067
:10534000996C002939D09378190705D5204B196E2F
:10535000002936D0996E89B1D3781B0707D51C4B2D
:10536000D3F880207AB3D3F8882011213AB162B6FD
:10537000184B00221A7030BC00F064BE0D21154C91
:10538000154D227843F8315003EBC1030830013A40
:105390005860227062B630BC704704220D4C0F4D2D
:1053A000217843F8325003EBC20308304A1E58609C
:1053B000227062B6EFE70521E1E70921DFE7082265
:1053C000ECE70C22EAE71022E8E700BF5881000072
:1053D0000080FF1FED98FF1FC800400088004000BC
:1053E000431E032B1DD81B4A400140F0100030B46F
:1053F000104472B6184CE25C032A1BD8DFE802F0B6
:105400000212151703220D88E25410F0080F14BF82
:10541000C823882343EA054308310360416062B62C
:1054200030BC704708300222EDE70522EBE7083078
:105430000422E8E7094A52F8230038B1084A52F832
:105440002300416042F8231062B6E9E742F82310D6
:10545000034AF7E70080FF1FFC98FF1FC498FF1F57
:10546000D498FF1F2DE9F04FDFF818B3DFF818A329
:1054700087B044E0AE4F4FEA930807EBC809013EFE
:10548000D9F8042003F00803F6B2A2F1080003F0F3
:10549000FF04002B40F0048157F838301B0C99B200
:1054A00022F8081C002B00F0F280A24B22F8064CD8
:1054B00042F8044C53F82620002A00F06E819E4DDD
:1054C00055F8263058609D4C45F8260034F81630C3
:1054D000194424F8161000F095FD002800F05681BC
:1054E000974A984B19F0080F00F1080018BF1346AF
:1054F000C9F8040047F8383008238BF800309BF8CF
:105500000040E4B261071BD58F4B1B78ABB18F49CC
:105510000A7802F0FF032AB1013BDBB20B70002BCB
:1055200000F0EF848A490A7802F0FF032AB1013BB8
:10553000DBB20B70002B00F0F78004238BF80030F7
:1055400004F0080303F0FF02002B00F0D6809AF865
:105550000030DBB21E098DD19C08DFF8D49159F8D8
:10556000342009EBC401C2F38302013A49680C2AD2
:105570007ED8DFE802F081817D7D7D7D7D7D477D68
:105580007D7D07000868734D4A68734F734E28602D
:1055900081B240F281606A4B6A604FF0010E0022D6
:1055A000814249F834303A60C9F81020C9F818200F
:1055B00086F800E05E4C00F2F480B1F5D06F80F028
:1055C0007883B1F5817F00F0628300F287828029C1
:1055D00000F0EC82822940F01E83A98801F07F014F
:1055E000042900F218835E485E4C8900084422704A
:1055F00062700278930740F1798384F800E04FF0FD
:10560000020ED8E2544F3A6842B3574B534E5749B3
:10561000188834780D784028864645F0020828BF5F
:105620004FF0400E002C84F001043470CEEB0000EB
:105630000CBF8824C82409EBC80680B285F0010598
:1056400044EA0E447260188049F8384072440D7084
:1056500018B9BEF1400F18BF00223A603D4B1A88BE
:10566000B2F5A06F04D100219A785970404B1A709E
:10567000404A012313703FE7364A158842F2210061
:10568000854200F0FF812E4A49F83420F0E72C4A89
:105690002C4B19F0080F18BF134647F838302BE78A
:1056A00000F0D0FC344A354952F82630002B00F087
:1056B000B68158688C5D42F8260003F10802C9F8EB
:1056C0000420032C05D8DFE804F0120F1502042291
:1056D0008A551A8819F0080F0CBF8823C82343EA9B
:1056E000024347F8383007E702228A55F1E70322E0
:1056F0008A55EEE705228A55EBE7E00700F11A82AA
:10570000210600F14982A20706D51D4A1D491378DA
:105710000220DBB213700870E30602D5194B102289
:105720001A7007B0BDE8F08F00F0F8FD05E700BF84
:105730000080FF1F7098FF1F1C98FF1F9C99FF1F80
:10574000C800400088004000F898FF1F8198FF1FA4
:105750000099FF1FE498FF1F1898FF1F8098FF1FF4
:10576000C0200740F098FF1F2C98FF1FEC98FF1FE8
:105770009820074094200740C498FF1FFC98FF1F03
:10578000882007408020074090200740AB4A47F818
:105790003800137801331370AEE643F82600A84DA5
:1057A00091E642F22100814200F0358100F2AF81A2
:1057B000B1F5086F00F01B82B1F5106F40F02B823D
:1057C000226AA049A8780870120600F14583D9F82A
:1057D00028209D49130600F13A83D9F830209A49D0
:1057E000150600F12F83D9F838209749140600F1E7
:1057F0002483D9F840209449100600F11983D9F880
:1058000048209149120600F10E83D9F850208E49A4
:10581000130600F10383D9F858208B49150600F1CF
:10582000F882D9F860208849140600F12983D9F854
:1058300068208549100600F11E83D9F8702082493E
:10584000120600F11383D9F878207F49130600F17E
:105850000883D9F880207C49150600F11C83D9F80B
:1058600088207949140600F11083D9F890207649F0
:10587000100600F1C882D9F898207349120600F189
:10588000BC827248724A7349019073486C4D734CE4
:105890000497002305960295804617460E461D463E
:1058A0000394386828B1446800F0CCFB2046002CF3
:1058B000F9D100233B60029B30681A46002342F86E
:1058C000253028B1446800F0BDFB2046002CF9D1FA
:1058D00000223260019A98F800301146002241F807
:1058E000042B039A0191023B4FF0000122F815109E
:1058F000032B09D8DFE813F04B0104004B0104002F
:105900004FF0010388F800300135042D07F104073A
:1059100006F1040608F10108C3D1514C514B22781D
:10592000464D049F059E002129701A70130700F14F
:105930004F8262784C49DFF810810A7010074FF0EF
:105940000001C9F83010C9F8381000F12B8247491E
:10595000A2780A700021C9F85010C9F85810110730
:10596000DFF8E48000F1DC81E2784149364C0A70CE
:1059700000211207C9F87010C9F8781000F1B98138
:1059800033780193002183F00102C9F89010C9F81F
:1059900098100020029080468446044635490D78D0
:1059A00045F0020E09EBCE030393019B002B039BF2
:1059B0005C600CBF8824C82444EA080385F0010415
:1059C00049F83E3032700C70DFF87CE02A4BDFF88B
:1059D000A480002840F02681BCF1400F1BD144F088
:1059E000020C09EBCC03029CDFF85CE05C60002A4F
:1059F00040F02E81020442F088029DF804304EF8F7
:105A00003C20044433700D702346402803D100200D
:105A10001A4A3B6010801A4A0123137028E68B5DF6
:105A2000032B00F22D8101A252F823F0F95400005B
:105A3000F9540000835B0000895B0000ED98FF1FB4
:105A40001C98FF1FF898FF1F0080FF1FD498FF1FAE
:105A50007098FF1FC498FF1FFC98FF1F9C99FF1FA1
:105A600058810000C4200740C8200740CC200740D0
:105A7000D0200740EC98FF1F8098FF1F2C98FF1F35
:105A800094200740928892B9B14A0D7848781570F1
:105A900050708D78C8789570D07010680D79157138
:105AA00086284D7989795571917100F0A580A949B1
:105AB000A94E0A78307882F00105002842F00202EF
:105AC0000D700CBF8821C82149F8321009EBC202C1
:105AD00080F00100002130705160D4E540F20232C4
